:020000040800F2
:1000000060060020790100088101000883010008D2
:100010008501000887010008890100080000000030
:100020000000000000000000000000008B0100083C
:100030008D010008000000008F01000891010008F8
:100040009301000893010008930100089301000840
:100050009301000893010008930100089301000830
:100060009301000893010008930100089301000820
:100070009301000893010008930100089301000810
:100080009301000893010008930100089301000800
:1000900093010008930100089301000893010008F0
:1000A00093010008930100089301000893010008E0
:1000B00093010008930100089301000893010008D0
:1000C00093010008930100089301000893010008C0
:1000D00093010008930100089301000893010008B0
:1000E00093010008930100089301000800F002F852
:1000F00000F030F80AA090E8000C82448344AAF192
:100100000107DA4501D100F025F8AFF2090EBAE88F
:100110000F0013F0010F18BFFB1A43F0010318473B
:10012000440500005405000000230024002500269B
:10013000103A28BF78C1FBD8520728BF30C148BF4A
:100140000B6070471FB50FBC00F014F80FB41FBD53
:1001500010B510BD00F033F81146FFF7F3FF00F0C3
:1001600077FA00F051F803B4FFF7F2FF03BC00F098
:1001700059F8000000F06DB8094880470948004769
:10018000FEE7FEE7FEE7FEE7FEE7FEE7FEE7FEE747
:10019000FEE7FEE704480549054A064B70470000A4
:1001A000E9050008ED00000860000020600600205E
:1001B000600200206002002070477047704775465B
:1001C00000F02CF8AE4605006946534620F00700C3
:1001D000854618B020B5FFF7DDFFBDE820404FF0A1
:1001E00000064FF000074FF000084FF0000BAC4640
:1001F000ACE8C009ACE8C009ACE8C009ACE8C0098B
:1002000021F007018D46704710B50446AFF300801A
:100210002046BDE81040FFF7A6BF00000048704729
:100220000000002001491820ABBEFEE726000200B6
:100230000246C91C21F00301D2E900031B1A8B42BC
:1002400001D2002070470144C91D21F0070111604F
:1002500070472DE9F34F83B000274FF48074BA46FE
:1002600003A821468DF80070FFF7E2FF5FEA00085F
:1002700001D100F083F82146404600F070F80600F6
:1002800009D04FF0010B4546C14616F8014B8FB11E
:100290005C2C16D01CE008F108004146C8F80000AC
:1002A0000020C8F80400D8F800402070012005B0F4
:1002B000BDE8F08F222C01D0272C0FD12746BA465B
:1002C0002CE03078222807D05C2805D0272803D0DE
:1002D000BC4203D1002721E0761C04464CB12FB963
:1002E000202C06D0A4F10900042802D905F8014BFE
:1002F000CBE74D4502D1BAF1000F0FD05246494627
:10030000002005F8010B6846AFF300809DF800005F
:1003100070B14D464FF0000A0BF1010B002CB4D127
:100320004FEA8B0103A8FFF783FF040002D004E02B
:10033000A946EFE7002000F021F800204246C4F86B
:10034000008005E012F8011B11B9401C44F8202080
:10035000AA42F7D3002144F820102146A7E71CB594
:100360000446CDE9000169461520ABBE08B1002066
:100370001CBD20461CBD70477047704710B500F08B
:1003800009F8BDE81040AFF30080002801D0FFF766
:1003900049BF704710B5012805D0002103A000F027
:1003A00021F8012010BD09A1F8E700005349475288
:1003B000544D454D3A204F7574206F662068656135
:1003C00070206D656D6F7279000000003A204865FD
:1003D0006170206D656D6F727920636F72727570D8
:1003E0007465640070B505460C460A2000E06D1C7B
:1003F00000F011F835B128780028F8D102E0641C2B
:1004000000F009F814B120780028F8D1BDE8704058
:100410000A20AFF3008008B569468DF8000003207C
:10042000ABBE08BD41F21800C4F20200016841F001
:100430000401016040F60000C4F20100016821F0EF
:100440000F010160016841F00B010160704700007D
:1004500041F21C00C4F20200016841F00101016098
:100460002C20C4F2000042F20F7101802821C4F256
:10047000000141F61F420A801821C4F200017022D7
:100480000A80008800EB8000800048F21F51C5F20E
:10049000EB11A0FB010149093422C4F200021180D2
:1004A0002021C4F2000103220A804FF08041012282
:1004B0000A801421C4F200010A80704780B500F060
:1004C00001F880BD83B000200290019041F200004D
:1004D000C4F20200016841F480310160FFE741F29B
:1004E0000000C4F20200006800F40030019002989D
:1004F00001300290FFE7019800210028009107D108
:10050000FFE70298B0F5A06018BF01200090FFE758
:100510000098C0070028E2D1FFE741F20000C4F2D2
:10052000020000688003002803D5FFE70120019046
:1005300002E000200190FFE70198012850D1FFE779
:1005400042F20000C4F20200016841F010010160B3
:10055000016821F007010160016841F002010160BA
:1005600041F20400C4F20200016801600168016008
:10057000016841F480610160016821F47C1101602F
:10058000016841F4E811016041F20000C4F2020088
:10059000016841F080710160FFE741F20000C4F2A0
:1005A000020000688001002801D4FFE7F5E741F26E
:1005B0000400C4F20200016821F003010160016837
:1005C00041F002010160FFE741F20400C4F20200C1
:1005D000006800F00C00082801D0FFE7F4E700E015
:1005E000FFE703B07047000080B541F20000C4F29D
:1005F0000200016841F00101016041F20401C4F20E
:1006000002010A680023CFF6FF031A400A6002685D
:100610004FF6FF73CFF6F6631A400260026822F4C9
:1006200080220260086820F4FE00086041F20800A1
:10063000C4F202004FF41F010160FFF73FFF4EF6C6
:100640000850CEF200004FF00061016080BD000054
:1006500080B582B000200190FFF7E4FEFFF7F8FEBE
:10066000FFE7FEE7740600080000002060060000B7
:040670002801000855
:04000005080000ED02
:00000001FF
