:020000040800F2
:1000000060060020790100088101000883010008D2
:100010008501000887010008890100080000000030
:100020000000000000000000000000008B0100083C
:100030008D010008000000008F01000891010008F8
:100040009301000893010008930100089301000840
:100050009301000893010008930100089301000830
:100060009301000893010008930100089301000820
:100070009301000893010008930100089301000810
:100080009301000893010008930100089301000800
:1000900093010008930100089301000893010008F0
:1000A00093010008930100089301000893010008E0
:1000B00093010008930100089301000893010008D0
:1000C00093010008930100089301000893010008C0
:1000D00093010008930100089301000893010008B0
:1000E00093010008930100089301000800F002F852
:1000F00000F030F80AA090E8000C82448344AAF192
:100100000107DA4501D100F025F8AFF2090EBAE88F
:100110000F0013F0010F18BFFB1A43F0010318473B
:10012000A0050000B00500000023002400250026E3
:10013000103A28BF78C1FBD8520728BF30C148BF4A
:100140000B6070471FB50FBC00F014F80FB41FBD53
:1001500010B510BD00F033F81146FFF7F3FF00F0C3
:1001600091FA00F051F803B4FFF7F2FF03BC00F07E
:1001700059F8000000F06DB8094880470948004769
:10018000FEE7FEE7FEE7FEE7FEE7FEE7FEE7FEE747
:10019000FEE7FEE704480549054A064B70470000A4
:1001A0001D060008ED000008600000206006002029
:1001B000600200206002002070477047704775465B
:1001C00000F02CF8AE4605006946534620F00700C3
:1001D000854618B020B5FFF7DDFFBDE820404FF0A1
:1001E00000064FF000074FF000084FF0000BAC4640
:1001F000ACE8C009ACE8C009ACE8C009ACE8C0098B
:1002000021F007018D46704710B50446AFF300801A
:100210002046BDE81040FFF7A6BF00000048704729
:100220000000002001491820ABBEFEE726000200B6
:100230000246C91C21F00301D2E900031B1A8B42BC
:1002400001D2002070470144C91D21F0070111604F
:1002500070472DE9F34F83B000274FF48074BA46FE
:1002600003A821468DF80070FFF7E2FF5FEA00085F
:1002700001D100F083F82146404600F070F80600F6
:1002800009D04FF0010B4546C14616F8014B8FB11E
:100290005C2C16D01CE008F108004146C8F80000AC
:1002A0000020C8F80400D8F800402070012005B0F4
:1002B000BDE8F08F222C01D0272C0FD12746BA465B
:1002C0002CE03078222807D05C2805D0272803D0DE
:1002D000BC4203D1002721E0761C04464CB12FB963
:1002E000202C06D0A4F10900042802D905F8014BFE
:1002F000CBE74D4502D1BAF1000F0FD05246494627
:10030000002005F8010B6846AFF300809DF800005F
:1003100070B14D464FF0000A0BF1010B002CB4D127
:100320004FEA8B0103A8FFF783FF040002D004E02B
:10033000A946EFE7002000F021F800204246C4F86B
:10034000008005E012F8011B11B9401C44F8202080
:10035000AA42F7D3002144F820102146A7E71CB594
:100360000446CDE9000169461520ABBE08B1002066
:100370001CBD20461CBD70477047704710B500F08B
:1003800009F8BDE81040AFF30080002801D0FFF766
:1003900049BF704710B5012805D0002103A000F027
:1003A00021F8012010BD09A1F8E700005349475288
:1003B000544D454D3A204F7574206F662068656135
:1003C00070206D656D6F7279000000003A204865FD
:1003D0006170206D656D6F727920636F72727570D8
:1003E0007465640070B505460C460A2000E06D1C7B
:1003F00000F011F835B128780028F8D102E0641C2B
:1004000000F009F814B120780028F8D1BDE8704058
:100410000A20AFF3008008B569468DF8000003207C
:10042000ABBE08BD82B0019000200090FFE70098AD
:100430000199884227D2FFE74EF21400CEF2000065
:1004400041F63F11C0F2010101604EF21000CEF200
:100450000000016841F0050101604EF21800CEF283
:10046000000000210160FFE74EF21000CEF2000014
:100470000068C003002801D4FFE7F5E7FFE7009814
:1004800001300090D3E702B07047000041F218003D
:10049000C4F20200016841F01001016041F2040061
:1004A000C4F20100016821F470010160016841F4A7
:1004B000401101607047000043F20000C4F20000E8
:1004C00045F25551016043F20401C4F200010022DB
:1004D0000A6043F20801C4F2000140F6FF720A60AC
:1004E0004AF6AA2101604CF6CC4101607047000039
:1004F00080B500F001F880BD83B00020029001902B
:1005000041F20000C4F20200016841F48031016050
:10051000FFE741F20000C4F20200006800F400307E
:100520000190029801300290FFE701980021002815
:10053000009107D1FFE70298B0F5A06018BF012035
:100540000090FFE70098C0070028E2D1FFE741F2E2
:100550000000C4F2020000688003002803D5FFE712
:100560000120019002E000200190FFE7019801289E
:1005700050D1FFE742F20000C4F20200016841F0EE
:1005800010010160016821F007010160016841F07C
:100590000201016041F20400C4F20200016801603E
:1005A00001680160016841F480610160016821F423
:1005B0007C110160016841F4E811016041F2000022
:1005C000C4F20200016841F080710160FFE741F26E
:1005D0000000C4F2020000688001002801D4FFE797
:1005E000F5E741F20400C4F20200016821F00301C2
:1005F0000160016841F002010160FFE741F204007F
:10060000C4F20200006800F00C00082801D0FFE7E7
:10061000F4E700E0FFE703B07047000080B541F267
:100620000000C4F20200016841F00101016041F2E2
:100630000401C4F202010A680023CFF6FF031A4046
:100640000A6002684FF6FF73CFF6F6631A40026045
:10065000026822F480220260086820F4FE0008602C
:1006600041F20800C4F202004FF41F010160FFF7DD
:100670003FFF4EF60850CEF200004FF000610160DF
:1006800080BD000080B582B000200190FFF7FEFE23
:1006900041F20C00C4F20100016841F40051016014
:1006A0000090FFF709FF4FF4E170FFF7BBFE0098E1
:1006B000016821F400510160FFE7FFF7FDFEFCE750
:1006C000D006000800000020600600002801000895
:04000005080000ED02
:00000001FF
