:020000040800F2
:1000000068060020950100089D0100089F01000876
:10001000A1010008A3010008A501000800000000DC
:10002000000000000000000000000000A701000820
:10003000A901000800000000AB010008AD010008A4
:10004000AF010008AF010008AF010008AF010008D0
:10005000AF010008AF010008AF010008AF010008C0
:10006000AF010008AF010008AF010008AF010008B0
:10007000AF010008AF010008AF010008AF010008A0
:10008000AF010008AF010008AF010008AF01000890
:10009000AF010008AF010008AF010008AF01000880
:1000A000AF010008AF010008AF010008AF01000870
:1000B000AF010008AF010008AF010008AF01000860
:1000C000AF010008AF010008AF010008AF01000850
:1000D000AF010008AF010008AF010008AF01000840
:1000E000AF010008AF010008AF01000800F002F8FE
:1000F00000F03EF80AA090E8000C82448344AAF184
:100100000107DA4501D100F033F8AFF2090EBAE881
:100110000F0013F0010F18BFFB1A43F0010318473B
:100120001C0700003C070000103A24BF78C878C1C3
:10013000FAD8520724BF30C830C144BF04680C60ED
:10014000704700000023002400250026103A28BF35
:1001500078C1FBD8520728BF30C148BF0B60704739
:100160001FB50FBC00F014F80FB41FBD10B510BDC3
:1001700000F033F81146FFF7F3FF00F02BFB00F01F
:1001800051F803B4FFF7F2FF03BC00F059F8000088
:1001900000F06DB80948804709480047FEE7FEE7D0
:1001A000FEE7FEE7FEE7FEE7FEE7FEE7FEE7FEE727
:1001B00004480549054A064B704700006D070008D2
:1001C000ED0000086800002068060020680200209A
:1001D00068020020704770477047754600F02CF8A1
:1001E000AE4605006946534620F00700854618B024
:1001F00020B5FFF7DDFFBDE820404FF000064FF0CF
:1002000000074FF000084FF0000BAC46ACE8C00907
:10021000ACE8C009ACE8C009ACE8C00921F00701AE
:100220008D46704710B50446AFF300802046BDE808
:100230001040FFF7A6BF00000048704708000020EC
:1002400001491820ABBEFEE7260002000246C91C89
:1002500021F00301D2E900031B1A8B4201D20020D6
:1002600070470144C91D21F00701116070472DE955
:10027000F34F83B000274FF48074BA4603A8214699
:100280008DF80070FFF7E2FF5FEA000801D100F08F
:1002900083F82146404600F070F8060009D04FF080
:1002A000010B4546C14616F8014B8FB15C2C16D0A8
:1002B0001CE008F108004146C8F800000020C8F81A
:1002C0000400D8F800402070012005B0BDE8F08F90
:1002D000222C01D0272C0FD12746BA462CE03078AB
:1002E000222807D05C2805D0272803D0BC4203D1A0
:1002F000002721E0761C04464CB12FB9202C06D0F3
:10030000A4F10900042802D905F8014BCBE74D45BB
:1003100002D1BAF1000F0FD052464946002005F82D
:10032000010B6846AFF300809DF8000070B14D46A8
:100330004FF0000A0BF1010B002CB4D14FEA8B01F6
:1003400003A8FFF783FF040002D004E0A946EFE70B
:10035000002000F021F800204246C4F8008005E0AB
:1003600012F8011B11B9401C44F82020AA42F7D30F
:10037000002144F820102146A7E71CB50446CDE92A
:10038000000169461520ABBE08B100201CBD204607
:100390001CBD70477047704710B500F009F8BDE804
:1003A0001040AFF30080002801D0FFF749BF70472D
:1003B00010B5012805D0002103A000F021F801208C
:1003C00010BD09A1F8E7000053494752544D454D6F
:1003D0003A204F7574206F662068656170206D65E6
:1003E0006D6F7279000000003A2048656170206DE1
:1003F000656D6F727920636F7272757074656400D9
:1004000070B505460C460A2000E06D1C00F011F89E
:1004100035B128780028F8D102E0641C00F009F812
:1004200014B120780028F8D1BDE870400A20AFF35D
:10043000008008B569468DF800000320ABBE08BDFA
:1004400080B582B00190FFE742F20C00C4F20200D6
:100450000068C007002801D0FFE7F5E742F210006E
:10046000C4F2020000680006002803D5FFE700F090
:1004700069F8FFE742F21000C4F20200016841F09F
:1004800002010160019942F21402C4F202021160F9
:10049000016841F040010160FFE742F20C00C4F244
:1004A00002000068C007002801D0FFE7F5E742F22C
:1004B0001000C4F20200016821F0400101600168EF
:1004C00021F002010160016841F08001016001201A
:1004D00002B080BD85B0039002910192002000908F
:1004E0000298002804D0FFE70198002804D1FFE714
:1004F00000208DF8130021E0FFE742F20C00C4F267
:1005000002000068C007002801D0FFE7F5E70020DF
:100510000090FFE700980199B0EB510F0AD2FFE776
:1005200003980099405C029A5054FFE7009801300C
:100530000090EFE701208DF81300FFE79DF813000E
:1005400005B0704742F20400C4F2020040F22311E9
:10055000C4F26751016048F6AB11CCF6EF5101606F
:100560007047000080B586B004900391029200208D
:100570000190039800280AD0FFE70298002806D0CF
:10058000FFE79DF80800C007002804D0FFE700201F
:100590008DF817004FE0FFE742F20C00C4F20200B2
:1005A0000068C007002801D0FFE7F5E742F210001D
:1005B000C4F2020000680006002803D5FFE7FFF739
:1005C000C1FFFFE742F21000C4F20200016841F0EF
:1005D0000101016000200190FFE701980299B0EB52
:1005E000510F0DD2FFE70398019930F811000499DB
:1005F000019A21F81200FFE7019801300190ECE721
:10060000FFE742F20C00C4F202000068C0070028B5
:1006100001D0FFE7F5E742F21000C4F202000168E2
:1006200021F001010160016841F0800101600120B9
:100630008DF81700FFE79DF8170006B080BD000099
:1006400080B500F001F880BD83B0002002900190D9
:1006500041F20000C4F20200016841F480310160FF
:10066000FFE741F20000C4F20200006800F400302D
:100670000190029801300290FFE7019800210028C4
:10068000009107D1FFE70298B0F5A06018BF0120E4
:100690000090FFE70098C0070028E2D1FFE741F291
:1006A0000000C4F2020000688003002803D5FFE7C1
:1006B0000120019002E000200190FFE7019801284D
:1006C00050D1FFE742F20000C4F20200016841F09D
:1006D00010010160016821F007010160016841F02B
:1006E0000201016041F20400C4F2020001680160ED
:1006F00001680160016841F480610160016821F4D2
:100700007C110160016841F4E811016041F20000D0
:10071000C4F20200016841F080710160FFE741F21C
:100720000000C4F2020000688001002801D4FFE745
:10073000F5E741F20400C4F20200016821F0030170
:100740000160016841F002010160FFE741F204002D
:10075000C4F20200006800F00C00082801D0FFE796
:10076000F4E700E0FFE703B07047000080B541F216
:100770000000C4F20200016841F00101016041F291
:100780000401C4F202010A680023CFF6FF031A40F5
:100790000A6002684FF6FF73CFF6F6631A400260F4
:1007A000026822F480220260086820F4FE000860DB
:1007B00041F20800C4F202004FF41F010160FFF78C
:1007C0003FFF4EF60850CEF200004FF0006101608E
:1007D00080BD000080B584B041F20000C0F600008A
:1007E0000390FFF72DFE40F20001C2F20001082243
:1007F000039B02901846FFF7B5FE012802D0FFE7E1
:10080000FFE7FEE740F20001C2F2000141F2000002
:10081000C0F600000822FFF75DFE012802D0FFE7C6
:10082000FFE7FEE741F20000C0F60000FFF708FE18
:1008300000210190084604B080BD00006008000857
:1008400000000020080000002801000868080008D7
:1008500008000020600600004401000800000000BD
:0808600001020304050607086C
:04000005080000ED02
:00000001FF
